{
  "_format": "hh-sol-artifact-1",
  "contractName": "GenerateRandom",
  "sourceName": "contracts/GenerateRandom.sol",
  "abi": [
    {
      "inputs": [],
      "stateMutability": "nonpayable",
      "type": "constructor"
    },
    {
      "anonymous": false,
      "inputs": [
        {
          "indexed": true,
          "internalType": "address",
          "name": "_user",
          "type": "address"
        }
      ],
      "name": "CreatedRandomNumber",
      "type": "event"
    },
    {
      "anonymous": false,
      "inputs": [
        {
          "indexed": true,
          "internalType": "address",
          "name": "previousOwner",
          "type": "address"
        },
        {
          "indexed": true,
          "internalType": "address",
          "name": "newOwner",
          "type": "address"
        }
      ],
      "name": "OwnershipTransferred",
      "type": "event"
    },
    {
      "inputs": [
        {
          "internalType": "uint256",
          "name": "randomValue",
          "type": "uint256"
        },
        {
          "internalType": "uint256",
          "name": "n",
          "type": "uint256"
        }
      ],
      "name": "expand",
      "outputs": [
        {
          "internalType": "uint256[]",
          "name": "expandedValues",
          "type": "uint256[]"
        }
      ],
      "stateMutability": "pure",
      "type": "function"
    },
    {
      "inputs": [
        {
          "internalType": "address",
          "name": "_user",
          "type": "address"
        }
      ],
      "name": "getUserRandomNumber",
      "outputs": [
        {
          "internalType": "uint256[2]",
          "name": "",
          "type": "uint256[2]"
        }
      ],
      "stateMutability": "view",
      "type": "function"
    },
    {
      "inputs": [],
      "name": "owner",
      "outputs": [
        {
          "internalType": "address",
          "name": "",
          "type": "address"
        }
      ],
      "stateMutability": "view",
      "type": "function"
    },
    {
      "inputs": [
        {
          "internalType": "bytes32",
          "name": "requestId",
          "type": "bytes32"
        },
        {
          "internalType": "uint256",
          "name": "randomness",
          "type": "uint256"
        }
      ],
      "name": "rawFulfillRandomness",
      "outputs": [],
      "stateMutability": "nonpayable",
      "type": "function"
    },
    {
      "inputs": [],
      "name": "renounceOwnership",
      "outputs": [],
      "stateMutability": "nonpayable",
      "type": "function"
    },
    {
      "inputs": [
        {
          "internalType": "bytes32",
          "name": "",
          "type": "bytes32"
        }
      ],
      "name": "requestIdToAddress",
      "outputs": [
        {
          "internalType": "address",
          "name": "",
          "type": "address"
        }
      ],
      "stateMutability": "view",
      "type": "function"
    },
    {
      "inputs": [
        {
          "internalType": "address",
          "name": "_user",
          "type": "address"
        }
      ],
      "name": "requestRandomNumber",
      "outputs": [
        {
          "internalType": "bytes32",
          "name": "requestId",
          "type": "bytes32"
        }
      ],
      "stateMutability": "nonpayable",
      "type": "function"
    },
    {
      "inputs": [
        {
          "internalType": "address",
          "name": "_user",
          "type": "address"
        }
      ],
      "name": "resetUserRandomNumber",
      "outputs": [],
      "stateMutability": "nonpayable",
      "type": "function"
    },
    {
      "inputs": [
        {
          "internalType": "address",
          "name": "newOwner",
          "type": "address"
        }
      ],
      "name": "transferOwnership",
      "outputs": [],
      "stateMutability": "nonpayable",
      "type": "function"
    }
  ],
  "bytecode": "0x60c060405234801561001057600080fd5b50738c7382f9d8f56b33781fe506e897a4f1e2d1725573326c977e6efc84e512bb9c30f76e30c160ed06fb8173ffffffffffffffffffffffffffffffffffffffff1660a08173ffffffffffffffffffffffffffffffffffffffff1660601b815250508073ffffffffffffffffffffffffffffffffffffffff1660808173ffffffffffffffffffffffffffffffffffffffff1660601b8152505050506100c76100bc61010360201b60201c565b61010b60201b60201c565b7f6e75b569a01ef56d18cab6a8e71e6600d6ce853834d4a5748b720d06f878b3a460001b600281905550655af3107a40006003819055506101d1565b600033905090565b6000600160009054906101000a900473ffffffffffffffffffffffffffffffffffffffff16905081600160006101000a81548173ffffffffffffffffffffffffffffffffffffffff021916908373ffffffffffffffffffffffffffffffffffffffff1602179055508173ffffffffffffffffffffffffffffffffffffffff168173ffffffffffffffffffffffffffffffffffffffff167f8be0079c531659141344cd1fd0a4f28419497f9722a3daafe3b4186f6b6457e060405160405180910390a35050565b60805160601c60a05160601c611acc61020a600039600081816108610152610c6e0152600081816105d50152610c320152611acc6000f3fe608060405234801561001057600080fd5b50600436106100935760003560e01c80638ef54850116100665780638ef548501461012057806394985ddd14610150578063ad7425fc1461016c578063bc64beee14610188578063f2fde38b146101b857610093565b8063715018a614610098578063874b3afc146100a257806388bcb916146100d25780638da5cb5b14610102575b600080fd5b6100a06101d4565b005b6100bc60048036038101906100b79190611183565b61025c565b6040516100c991906114c4565b60405180910390f35b6100ec60048036038101906100e791906110a3565b610365565b6040516100f991906114a9565b60405180910390f35b61010a610528565b6040516101179190611450565b60405180910390f35b61013a600480360381019061013591906110a3565b610552565b60405161014791906114e6565b60405180910390f35b61016a6004803603810190610165919061111e565b61085f565b005b610186600480360381019061018191906110a3565b6108fb565b005b6101a2600480360381019061019d91906110f5565b610a35565b6040516101af9190611450565b60405180910390f35b6101d260048036038101906101cd91906110a3565b610a68565b005b6101dc610b60565b73ffffffffffffffffffffffffffffffffffffffff166101fa610528565b73ffffffffffffffffffffffffffffffffffffffff1614610250576040517f08c379a0000000000000000000000000000000000000000000000000000000008152600401610247906115af565b60405180910390fd5b61025a6000610b68565b565b60608167ffffffffffffffff81111561029e577f4e487b7100000000000000000000000000000000000000000000000000000000600052604160045260246000fd5b6040519080825280602002602001820160405280156102cc5781602001602082028036833780820191505090505b50905060005b8281101561035e5783816040516020016102ed92919061164f565b6040516020818303038152906040528051906020012060001c82828151811061033f577f4e487b7100000000000000000000000000000000000000000000000000000000600052603260045260246000fd5b6020026020010181815250508080610356906117e6565b9150506102d2565b5092915050565b61036d61100a565b610375610b60565b73ffffffffffffffffffffffffffffffffffffffff16610393610528565b73ffffffffffffffffffffffffffffffffffffffff16146103e9576040517f08c379a00000000000000000000000000000000000000000000000000000000081526004016103e0906115af565b60405180910390fd5b6000600560008473ffffffffffffffffffffffffffffffffffffffff1673ffffffffffffffffffffffffffffffffffffffff168152602001908152602001600020600160028110610463577f4e487b7100000000000000000000000000000000000000000000000000000000600052603260045260246000fd5b015414156104a6576040517f08c379a000000000000000000000000000000000000000000000000000000000815260040161049d906115cf565b60405180910390fd5b600560008373ffffffffffffffffffffffffffffffffffffffff1673ffffffffffffffffffffffffffffffffffffffff16815260200190815260200160002060028060200260405190810160405280929190826002801561051c576020028201915b815481526020019060010190808311610508575b50505050509050919050565b6000600160009054906101000a900473ffffffffffffffffffffffffffffffffffffffff16905090565b600061055c610b60565b73ffffffffffffffffffffffffffffffffffffffff1661057a610528565b73ffffffffffffffffffffffffffffffffffffffff16146105d0576040517f08c379a00000000000000000000000000000000000000000000000000000000081526004016105c7906115af565b60405180910390fd5b6003547f000000000000000000000000000000000000000000000000000000000000000073ffffffffffffffffffffffffffffffffffffffff166370a08231306040518263ffffffff1660e01b815260040161062c9190611450565b60206040518083038186803b15801561064457600080fd5b505afa158015610658573d6000803e3d6000fd5b505050506040513d601f19601f8201168201806040525081019061067c919061115a565b10156106bd576040517f08c379a00000000000000000000000000000000000000000000000000000000081526004016106b49061158f565b60405180910390fd5b6000600560008473ffffffffffffffffffffffffffffffffffffffff1673ffffffffffffffffffffffffffffffffffffffff168152602001908152602001600020600060028110610737577f4e487b7100000000000000000000000000000000000000000000000000000000600052603260045260246000fd5b015414610779576040517f08c379a0000000000000000000000000000000000000000000000000000000008152600401610770906115ef565b60405180910390fd5b6001600560008473ffffffffffffffffffffffffffffffffffffffff1673ffffffffffffffffffffffffffffffffffffffff1681526020019081526020016000206000600281106107f3577f4e487b7100000000000000000000000000000000000000000000000000000000600052603260045260246000fd5b0181905550610806600254600354610c2e565b9050816004600083815260200190815260200160002060006101000a81548173ffffffffffffffffffffffffffffffffffffffff021916908373ffffffffffffffffffffffffffffffffffffffff160217905550919050565b7f000000000000000000000000000000000000000000000000000000000000000073ffffffffffffffffffffffffffffffffffffffff163373ffffffffffffffffffffffffffffffffffffffff16146108ed576040517f08c379a00000000000000000000000000000000000000000000000000000000081526004016108e49061160f565b60405180910390fd5b6108f78282610d8d565b5050565b610903610b60565b73ffffffffffffffffffffffffffffffffffffffff16610921610528565b73ffffffffffffffffffffffffffffffffffffffff1614610977576040517f08c379a000000000000000000000000000000000000000000000000000000000815260040161096e906115af565b60405180910390fd5b600073ffffffffffffffffffffffffffffffffffffffff168173ffffffffffffffffffffffffffffffffffffffff1614156109e7576040517f08c379a00000000000000000000000000000000000000000000000000000000081526004016109de9061162f565b60405180910390fd5b600560008273ffffffffffffffffffffffffffffffffffffffff1673ffffffffffffffffffffffffffffffffffffffff1681526020019081526020016000206000610a32919061102c565b50565b60046020528060005260406000206000915054906101000a900473ffffffffffffffffffffffffffffffffffffffff1681565b610a70610b60565b73ffffffffffffffffffffffffffffffffffffffff16610a8e610528565b73ffffffffffffffffffffffffffffffffffffffff1614610ae4576040517f08c379a0000000000000000000000000000000000000000000000000000000008152600401610adb906115af565b60405180910390fd5b600073ffffffffffffffffffffffffffffffffffffffff168173ffffffffffffffffffffffffffffffffffffffff161415610b54576040517f08c379a0000000000000000000000000000000000000000000000000000000008152600401610b4b9061156f565b60405180910390fd5b610b5d81610b68565b50565b600033905090565b6000600160009054906101000a900473ffffffffffffffffffffffffffffffffffffffff16905081600160006101000a81548173ffffffffffffffffffffffffffffffffffffffff021916908373ffffffffffffffffffffffffffffffffffffffff1602179055508173ffffffffffffffffffffffffffffffffffffffff168173ffffffffffffffffffffffffffffffffffffffff167f8be0079c531659141344cd1fd0a4f28419497f9722a3daafe3b4186f6b6457e060405160405180910390a35050565b60007f000000000000000000000000000000000000000000000000000000000000000073ffffffffffffffffffffffffffffffffffffffff16634000aea07f000000000000000000000000000000000000000000000000000000000000000084866000604051602001610ca2929190611501565b6040516020818303038152906040526040518463ffffffff1660e01b8152600401610ccf9392919061146b565b602060405180830381600087803b158015610ce957600080fd5b505af1158015610cfd573d6000803e3d6000fd5b505050506040513d601f19601f82011682018060405250810190610d2191906110cc565b506000610d438460003060008089815260200190815260200160002054610f9b565b9050600160008086815260200190815260200160002054610d64919061170b565b60008086815260200190815260200160002081905550610d848482610fd7565b91505092915050565b60006004600084815260200190815260200160002060009054906101000a900473ffffffffffffffffffffffffffffffffffffffff1690506000610dd283600261025c565b905080600081518110610e0e577f4e487b7100000000000000000000000000000000000000000000000000000000600052603260045260246000fd5b6020026020010151600560008473ffffffffffffffffffffffffffffffffffffffff1673ffffffffffffffffffffffffffffffffffffffff168152602001908152602001600020600060028110610e8e577f4e487b7100000000000000000000000000000000000000000000000000000000600052603260045260246000fd5b018190555080600181518110610ecd577f4e487b7100000000000000000000000000000000000000000000000000000000600052603260045260246000fd5b6020026020010151600560008473ffffffffffffffffffffffffffffffffffffffff1673ffffffffffffffffffffffffffffffffffffffff168152602001908152602001600020600160028110610f4d577f4e487b7100000000000000000000000000000000000000000000000000000000600052603260045260246000fd5b01819055508173ffffffffffffffffffffffffffffffffffffffff167f977683f6de54fb00aa73bd0f7db6bcf807e1c3a85d942703ec1cefbbff316fb260405160405180910390a250505050565b600084848484604051602001610fb4949392919061152a565b6040516020818303038152906040528051906020012060001c9050949350505050565b60008282604051602001610fec929190611424565b60405160208183030381529060405280519060200120905092915050565b6040518060400160405280600290602082028036833780820191505090505090565b506000815560010160009055565b60008135905061104981611a3a565b92915050565b60008151905061105e81611a51565b92915050565b60008135905061107381611a68565b92915050565b60008135905061108881611a7f565b92915050565b60008151905061109d81611a7f565b92915050565b6000602082840312156110b557600080fd5b60006110c38482850161103a565b91505092915050565b6000602082840312156110de57600080fd5b60006110ec8482850161104f565b91505092915050565b60006020828403121561110757600080fd5b600061111584828501611064565b91505092915050565b6000806040838503121561113157600080fd5b600061113f85828601611064565b925050602061115085828601611079565b9150509250929050565b60006020828403121561116c57600080fd5b600061117a8482850161108e565b91505092915050565b6000806040838503121561119657600080fd5b60006111a485828601611079565b92505060206111b585828601611079565b9150509250929050565b60006111cb83836113ef565b60208301905092915050565b6111e081611761565b82525050565b6111ef81611692565b6111f981846116cd565b925061120482611678565b8060005b8381101561123557815161121c87826111bf565b9650611227836116b3565b925050600181019050611208565b505050505050565b60006112488261169d565b61125281856116d8565b935061125d83611682565b8060005b8381101561128e57815161127588826111bf565b9750611280836116c0565b925050600181019050611261565b5085935050505092915050565b6112a48161177f565b82525050565b6112bb6112b68261177f565b61182f565b82525050565b60006112cc826116a8565b6112d681856116e9565b93506112e68185602086016117b3565b6112ef81611872565b840191505092915050565b60006113076026836116fa565b915061131282611883565b604082019050919050565b600061132a602b836116fa565b9150611335826118d2565b604082019050919050565b600061134d6020836116fa565b915061135882611921565b602082019050919050565b60006113706022836116fa565b915061137b8261194a565b604082019050919050565b60006113936026836116fa565b915061139e82611999565b604082019050919050565b60006113b6601f836116fa565b91506113c1826119e8565b602082019050919050565b60006113d9601c836116fa565b91506113e482611a11565b602082019050919050565b6113f8816117a9565b82525050565b611407816117a9565b82525050565b61141e611419826117a9565b611839565b82525050565b600061143082856112aa565b602082019150611440828461140d565b6020820191508190509392505050565b600060208201905061146560008301846111d7565b92915050565b600060608201905061148060008301866111d7565b61148d60208301856113fe565b818103604083015261149f81846112c1565b9050949350505050565b60006040820190506114be60008301846111e6565b92915050565b600060208201905081810360008301526114de818461123d565b905092915050565b60006020820190506114fb600083018461129b565b92915050565b6000604082019050611516600083018561129b565b61152360208301846113fe565b9392505050565b600060808201905061153f600083018761129b565b61154c60208301866113fe565b61155960408301856111d7565b61156660608301846113fe565b95945050505050565b60006020820190508181036000830152611588816112fa565b9050919050565b600060208201905081810360008301526115a88161131d565b9050919050565b600060208201905081810360008301526115c881611340565b9050919050565b600060208201905081810360008301526115e881611363565b9050919050565b6000602082019050818103600083015261160881611386565b9050919050565b60006020820190508181036000830152611628816113a9565b9050919050565b60006020820190508181036000830152611648816113cc565b9050919050565b600060408201905061166460008301856113fe565b61167160208301846113fe565b9392505050565b6000819050919050565b6000819050602082019050919050565b600060029050919050565b600081519050919050565b600081519050919050565b6000602082019050919050565b6000602082019050919050565b600081905092915050565b600082825260208201905092915050565b600082825260208201905092915050565b600082825260208201905092915050565b6000611716826117a9565b9150611721836117a9565b9250827fffffffffffffffffffffffffffffffffffffffffffffffffffffffffffffffff0382111561175657611755611843565b5b828201905092915050565b600061176c82611789565b9050919050565b60008115159050919050565b6000819050919050565b600073ffffffffffffffffffffffffffffffffffffffff82169050919050565b6000819050919050565b60005b838110156117d15780820151818401526020810190506117b6565b838111156117e0576000848401525b50505050565b60006117f1826117a9565b91507fffffffffffffffffffffffffffffffffffffffffffffffffffffffffffffffff82141561182457611823611843565b5b600182019050919050565b6000819050919050565b6000819050919050565b7f4e487b7100000000000000000000000000000000000000000000000000000000600052601160045260246000fd5b6000601f19601f8301169050919050565b7f4f776e61626c653a206e6577206f776e657220697320746865207a65726f206160008201527f6464726573730000000000000000000000000000000000000000000000000000602082015250565b7f4e6f7420656e6f756768204c494e4b202d2066696c6c20636f6e74726163742060008201527f7769746820666175636574000000000000000000000000000000000000000000602082015250565b7f4f776e61626c653a2063616c6c6572206973206e6f7420746865206f776e6572600082015250565b7f55736572206e6f742072657175657374656420612072616e646f6d206e756d6260008201527f6572000000000000000000000000000000000000000000000000000000000000602082015250565b7f5573657220616c72656164792072657175657374656420612072616e646f6d2060008201527f6e756d6265720000000000000000000000000000000000000000000000000000602082015250565b7f4f6e6c7920565246436f6f7264696e61746f722063616e2066756c66696c6c00600082015250565b7f4d75737420696e736572742061207573657220746f2072656d6f766500000000600082015250565b611a4381611761565b8114611a4e57600080fd5b50565b611a5a81611773565b8114611a6557600080fd5b50565b611a718161177f565b8114611a7c57600080fd5b50565b611a88816117a9565b8114611a9357600080fd5b5056fea2646970667358221220d3fcecd4c92612c86194a173884e81956445db42661fbcfe63235bdf2b8885c164736f6c63430008040033",
  "linkReferences": {},
  "deployedLinkReferences": {}
}