{
  "_format": "hh-sol-artifact-1",
  "contractName": "LabMonsterNft",
  "sourceName": "contracts/LabMonsterNft.sol",
  "abi": [
    {
      "inputs": [
        {
          "internalType": "address",
          "name": "_token",
          "type": "address"
        },
        {
          "internalType": "address",
          "name": "_generateRandom",
          "type": "address"
        }
      ],
      "stateMutability": "nonpayable",
      "type": "constructor"
    },
    {
      "anonymous": false,
      "inputs": [
        {
          "indexed": true,
          "internalType": "address",
          "name": "owner",
          "type": "address"
        },
        {
          "indexed": true,
          "internalType": "address",
          "name": "approved",
          "type": "address"
        },
        {
          "indexed": true,
          "internalType": "uint256",
          "name": "tokenId",
          "type": "uint256"
        }
      ],
      "name": "Approval",
      "type": "event"
    },
    {
      "anonymous": false,
      "inputs": [
        {
          "indexed": true,
          "internalType": "address",
          "name": "owner",
          "type": "address"
        },
        {
          "indexed": true,
          "internalType": "address",
          "name": "operator",
          "type": "address"
        },
        {
          "indexed": false,
          "internalType": "bool",
          "name": "approved",
          "type": "bool"
        }
      ],
      "name": "ApprovalForAll",
      "type": "event"
    },
    {
      "anonymous": false,
      "inputs": [
        {
          "indexed": true,
          "internalType": "address",
          "name": "previousOwner",
          "type": "address"
        },
        {
          "indexed": true,
          "internalType": "address",
          "name": "newOwner",
          "type": "address"
        }
      ],
      "name": "OwnershipTransferred",
      "type": "event"
    },
    {
      "anonymous": false,
      "inputs": [
        {
          "indexed": true,
          "internalType": "address",
          "name": "from",
          "type": "address"
        },
        {
          "indexed": true,
          "internalType": "address",
          "name": "to",
          "type": "address"
        },
        {
          "indexed": true,
          "internalType": "uint256",
          "name": "tokenId",
          "type": "uint256"
        }
      ],
      "name": "Transfer",
      "type": "event"
    },
    {
      "inputs": [
        {
          "internalType": "address",
          "name": "to",
          "type": "address"
        },
        {
          "internalType": "uint256",
          "name": "tokenId",
          "type": "uint256"
        }
      ],
      "name": "approve",
      "outputs": [],
      "stateMutability": "nonpayable",
      "type": "function"
    },
    {
      "inputs": [
        {
          "internalType": "address",
          "name": "owner",
          "type": "address"
        }
      ],
      "name": "balanceOf",
      "outputs": [
        {
          "internalType": "uint256",
          "name": "",
          "type": "uint256"
        }
      ],
      "stateMutability": "view",
      "type": "function"
    },
    {
      "inputs": [],
      "name": "generateRandom",
      "outputs": [
        {
          "internalType": "contract GenerateRandom",
          "name": "",
          "type": "address"
        }
      ],
      "stateMutability": "view",
      "type": "function"
    },
    {
      "inputs": [
        {
          "internalType": "uint256",
          "name": "tokenId",
          "type": "uint256"
        }
      ],
      "name": "getApproved",
      "outputs": [
        {
          "internalType": "address",
          "name": "",
          "type": "address"
        }
      ],
      "stateMutability": "view",
      "type": "function"
    },
    {
      "inputs": [],
      "name": "getTestToken",
      "outputs": [],
      "stateMutability": "nonpayable",
      "type": "function"
    },
    {
      "inputs": [
        {
          "internalType": "address",
          "name": "_owner",
          "type": "address"
        }
      ],
      "name": "getTokenIds",
      "outputs": [
        {
          "internalType": "uint256[]",
          "name": "",
          "type": "uint256[]"
        }
      ],
      "stateMutability": "view",
      "type": "function"
    },
    {
      "inputs": [
        {
          "internalType": "address",
          "name": "owner",
          "type": "address"
        },
        {
          "internalType": "address",
          "name": "operator",
          "type": "address"
        }
      ],
      "name": "isApprovedForAll",
      "outputs": [
        {
          "internalType": "bool",
          "name": "",
          "type": "bool"
        }
      ],
      "stateMutability": "view",
      "type": "function"
    },
    {
      "inputs": [],
      "name": "name",
      "outputs": [
        {
          "internalType": "string",
          "name": "",
          "type": "string"
        }
      ],
      "stateMutability": "view",
      "type": "function"
    },
    {
      "inputs": [],
      "name": "owner",
      "outputs": [
        {
          "internalType": "address",
          "name": "",
          "type": "address"
        }
      ],
      "stateMutability": "view",
      "type": "function"
    },
    {
      "inputs": [
        {
          "internalType": "uint256",
          "name": "tokenId",
          "type": "uint256"
        }
      ],
      "name": "ownerOf",
      "outputs": [
        {
          "internalType": "address",
          "name": "",
          "type": "address"
        }
      ],
      "stateMutability": "view",
      "type": "function"
    },
    {
      "inputs": [],
      "name": "randomMint",
      "outputs": [
        {
          "internalType": "uint256",
          "name": "",
          "type": "uint256"
        }
      ],
      "stateMutability": "nonpayable",
      "type": "function"
    },
    {
      "inputs": [],
      "name": "renounceOwnership",
      "outputs": [],
      "stateMutability": "nonpayable",
      "type": "function"
    },
    {
      "inputs": [],
      "name": "requestRandomNumber",
      "outputs": [],
      "stateMutability": "nonpayable",
      "type": "function"
    },
    {
      "inputs": [
        {
          "internalType": "address",
          "name": "from",
          "type": "address"
        },
        {
          "internalType": "address",
          "name": "to",
          "type": "address"
        },
        {
          "internalType": "uint256",
          "name": "tokenId",
          "type": "uint256"
        }
      ],
      "name": "safeTransferFrom",
      "outputs": [],
      "stateMutability": "nonpayable",
      "type": "function"
    },
    {
      "inputs": [
        {
          "internalType": "address",
          "name": "from",
          "type": "address"
        },
        {
          "internalType": "address",
          "name": "to",
          "type": "address"
        },
        {
          "internalType": "uint256",
          "name": "tokenId",
          "type": "uint256"
        },
        {
          "internalType": "bytes",
          "name": "_data",
          "type": "bytes"
        }
      ],
      "name": "safeTransferFrom",
      "outputs": [],
      "stateMutability": "nonpayable",
      "type": "function"
    },
    {
      "inputs": [
        {
          "internalType": "address",
          "name": "operator",
          "type": "address"
        },
        {
          "internalType": "bool",
          "name": "approved",
          "type": "bool"
        }
      ],
      "name": "setApprovalForAll",
      "outputs": [],
      "stateMutability": "nonpayable",
      "type": "function"
    },
    {
      "inputs": [],
      "name": "slabsToken",
      "outputs": [
        {
          "internalType": "contract IERC20",
          "name": "",
          "type": "address"
        }
      ],
      "stateMutability": "view",
      "type": "function"
    },
    {
      "inputs": [
        {
          "internalType": "bytes4",
          "name": "interfaceId",
          "type": "bytes4"
        }
      ],
      "name": "supportsInterface",
      "outputs": [
        {
          "internalType": "bool",
          "name": "",
          "type": "bool"
        }
      ],
      "stateMutability": "view",
      "type": "function"
    },
    {
      "inputs": [],
      "name": "symbol",
      "outputs": [
        {
          "internalType": "string",
          "name": "",
          "type": "string"
        }
      ],
      "stateMutability": "view",
      "type": "function"
    },
    {
      "inputs": [
        {
          "internalType": "uint256",
          "name": "index",
          "type": "uint256"
        }
      ],
      "name": "tokenByIndex",
      "outputs": [
        {
          "internalType": "uint256",
          "name": "",
          "type": "uint256"
        }
      ],
      "stateMutability": "view",
      "type": "function"
    },
    {
      "inputs": [
        {
          "internalType": "address",
          "name": "owner",
          "type": "address"
        },
        {
          "internalType": "uint256",
          "name": "index",
          "type": "uint256"
        }
      ],
      "name": "tokenOfOwnerByIndex",
      "outputs": [
        {
          "internalType": "uint256",
          "name": "",
          "type": "uint256"
        }
      ],
      "stateMutability": "view",
      "type": "function"
    },
    {
      "inputs": [
        {
          "internalType": "uint256",
          "name": "tokenId",
          "type": "uint256"
        }
      ],
      "name": "tokenURI",
      "outputs": [
        {
          "internalType": "string",
          "name": "",
          "type": "string"
        }
      ],
      "stateMutability": "view",
      "type": "function"
    },
    {
      "inputs": [],
      "name": "totalSupply",
      "outputs": [
        {
          "internalType": "uint256",
          "name": "",
          "type": "uint256"
        }
      ],
      "stateMutability": "view",
      "type": "function"
    },
    {
      "inputs": [
        {
          "internalType": "address",
          "name": "from",
          "type": "address"
        },
        {
          "internalType": "address",
          "name": "to",
          "type": "address"
        },
        {
          "internalType": "uint256",
          "name": "tokenId",
          "type": "uint256"
        }
      ],
      "name": "transferFrom",
      "outputs": [],
      "stateMutability": "nonpayable",
      "type": "function"
    },
    {
      "inputs": [
        {
          "internalType": "address",
          "name": "newOwner",
          "type": "address"
        }
      ],
      "name": "transferOwnership",
      "outputs": [],
      "stateMutability": "nonpayable",
      "type": "function"
    }
  ],
  "bytecode": "0x60806040523480156200001157600080fd5b5060405162004cab38038062004cab833981810160405281019062000037919062000316565b6040518060400160405280600a81526020017f4c61624d6f6e73746572000000000000000000000000000000000000000000008152506040518060400160405280600a81526020017f4c41424d4f4e53544552000000000000000000000000000000000000000000008152508160009080519060200190620000bb9291906200024f565b508060019080519060200190620000d49291906200024f565b505050620000f7620000eb6200018160201b60201c565b6200018960201b60201c565b81600d60006101000a81548173ffffffffffffffffffffffffffffffffffffffff021916908373ffffffffffffffffffffffffffffffffffffffff16021790555080600e60006101000a81548173ffffffffffffffffffffffffffffffffffffffff021916908373ffffffffffffffffffffffffffffffffffffffff16021790555050506200040a565b600033905090565b6000600b60009054906101000a900473ffffffffffffffffffffffffffffffffffffffff16905081600b60006101000a81548173ffffffffffffffffffffffffffffffffffffffff021916908373ffffffffffffffffffffffffffffffffffffffff1602179055508173ffffffffffffffffffffffffffffffffffffffff168173ffffffffffffffffffffffffffffffffffffffff167f8be0079c531659141344cd1fd0a4f28419497f9722a3daafe3b4186f6b6457e060405160405180910390a35050565b8280546200025d906200038b565b90600052602060002090601f016020900481019282620002815760008555620002cd565b82601f106200029c57805160ff1916838001178555620002cd565b82800160010185558215620002cd579182015b82811115620002cc578251825591602001919060010190620002af565b5b509050620002dc9190620002e0565b5090565b5b80821115620002fb576000816000905550600101620002e1565b5090565b6000815190506200031081620003f0565b92915050565b600080604083850312156200032a57600080fd5b60006200033a85828601620002ff565b92505060206200034d85828601620002ff565b9150509250929050565b600062000364826200036b565b9050919050565b600073ffffffffffffffffffffffffffffffffffffffff82169050919050565b60006002820490506001821680620003a457607f821691505b60208210811415620003bb57620003ba620003c1565b5b50919050565b7f4e487b7100000000000000000000000000000000000000000000000000000000600052602260045260246000fd5b620003fb8162000357565b81146200040757600080fd5b50565b614891806200041a6000396000f3fe608060405234801561001057600080fd5b50600436106101735760003560e01c8063715018a6116100de578063a22cb46511610097578063c87b56dd11610071578063c87b56dd14610414578063d004b03614610444578063e985e9c514610474578063f2fde38b146104a457610173565b8063a22cb465146103d2578063abb28b92146103ee578063b88d4fde146103f857610173565b8063715018a6146103465780637e1eaabf146103505780638678a7b21461036e5780638da5cb5b1461037857806395d89b411461039657806395dd32a9146103b457610173565b806323b872dd1161013057806323b872dd1461024e5780632f745c591461026a57806342842e0e1461029a5780634f6ccce7146102b65780636352211e146102e657806370a082311461031657610173565b806301ffc9a71461017857806302e4af01146101a857806306fdde03146101c6578063081812fc146101e4578063095ea7b31461021457806318160ddd14610230575b600080fd5b610192600480360381019061018d9190613086565b6104c0565b60405161019f9190613866565b60405180910390f35b6101b06104d2565b6040516101bd9190613881565b60405180910390f35b6101ce6104f8565b6040516101db91906138b7565b60405180910390f35b6101fe60048036038101906101f991906130d8565b61058a565b60405161020b9190613754565b60405180910390f35b61022e60048036038101906102299190612fcf565b61060f565b005b610238610727565b6040516102459190613bb9565b60405180910390f35b61026860048036038101906102639190612ec9565b610734565b005b610284600480360381019061027f9190612fcf565b610794565b6040516102919190613bb9565b60405180910390f35b6102b460048036038101906102af9190612ec9565b610839565b005b6102d060048036038101906102cb91906130d8565b610859565b6040516102dd9190613bb9565b60405180910390f35b61030060048036038101906102fb91906130d8565b6108f0565b60405161030d9190613754565b60405180910390f35b610330600480360381019061032b9190612e64565b6109a2565b60405161033d9190613bb9565b60405180910390f35b61034e610a5a565b005b610358610ae2565b6040516103659190613bb9565b60405180910390f35b610376611005565b005b6103806110b5565b60405161038d9190613754565b60405180910390f35b61039e6110df565b6040516103ab91906138b7565b60405180910390f35b6103bc611171565b6040516103c9919061389c565b60405180910390f35b6103ec60048036038101906103e79190612f93565b611197565b005b6103f66111ad565b005b610412600480360381019061040d9190612f18565b61135c565b005b61042e600480360381019061042991906130d8565b6113be565b60405161043b91906138b7565b60405180910390f35b61045e60048036038101906104599190612e64565b6113d0565b60405161046b9190613844565b60405180910390f35b61048e60048036038101906104899190612e8d565b6114cc565b60405161049b9190613866565b60405180910390f35b6104be60048036038101906104b99190612e64565b611560565b005b60006104cb82611658565b9050919050565b600e60009054906101000a900473ffffffffffffffffffffffffffffffffffffffff1681565b60606000805461050790613ea1565b80601f016020809104026020016040519081016040528092919081815260200182805461053390613ea1565b80156105805780601f1061055557610100808354040283529160200191610580565b820191906000526020600020905b81548152906001019060200180831161056357829003601f168201915b5050505050905090565b6000610595826116d2565b6105d4576040517f08c379a00000000000000000000000000000000000000000000000000000000081526004016105cb90613ad9565b60405180910390fd5b6004600083815260200190815260200160002060009054906101000a900473ffffffffffffffffffffffffffffffffffffffff169050919050565b600061061a826108f0565b90508073ffffffffffffffffffffffffffffffffffffffff168373ffffffffffffffffffffffffffffffffffffffff16141561068b576040517f08c379a000000000000000000000000000000000000000000000000000000000815260040161068290613b39565b60405180910390fd5b8073ffffffffffffffffffffffffffffffffffffffff166106aa61173e565b73ffffffffffffffffffffffffffffffffffffffff1614806106d957506106d8816106d361173e565b6114cc565b5b610718576040517f08c379a000000000000000000000000000000000000000000000000000000000815260040161070f906139f9565b60405180910390fd5b6107228383611746565b505050565b6000600880549050905090565b61074561073f61173e565b826117ff565b610784576040517f08c379a000000000000000000000000000000000000000000000000000000000815260040161077b90613b59565b60405180910390fd5b61078f8383836118dd565b505050565b600061079f836109a2565b82106107e0576040517f08c379a00000000000000000000000000000000000000000000000000000000081526004016107d7906138f9565b60405180910390fd5b600660008473ffffffffffffffffffffffffffffffffffffffff1673ffffffffffffffffffffffffffffffffffffffff168152602001908152602001600020600083815260200190815260200160002054905092915050565b6108548383836040518060200160405280600081525061135c565b505050565b6000610863610727565b82106108a4576040517f08c379a000000000000000000000000000000000000000000000000000000000815260040161089b90613b79565b60405180910390fd5b600882815481106108de577f4e487b7100000000000000000000000000000000000000000000000000000000600052603260045260246000fd5b90600052602060002001549050919050565b6000806002600084815260200190815260200160002060009054906101000a900473ffffffffffffffffffffffffffffffffffffffff169050600073ffffffffffffffffffffffffffffffffffffffff168173ffffffffffffffffffffffffffffffffffffffff161415610999576040517f08c379a000000000000000000000000000000000000000000000000000000000815260040161099090613a39565b60405180910390fd5b80915050919050565b60008073ffffffffffffffffffffffffffffffffffffffff168273ffffffffffffffffffffffffffffffffffffffff161415610a13576040517f08c379a0000000000000000000000000000000000000000000000000000000008152600401610a0a90613a19565b60405180910390fd5b600360008373ffffffffffffffffffffffffffffffffffffffff1673ffffffffffffffffffffffffffffffffffffffff168152602001908152602001600020549050919050565b610a6261173e565b73ffffffffffffffffffffffffffffffffffffffff16610a806110b5565b73ffffffffffffffffffffffffffffffffffffffff1614610ad6576040517f08c379a0000000000000000000000000000000000000000000000000000000008152600401610acd90613af9565b60405180910390fd5b610ae06000611b44565b565b600067d02ab486cedc0000600d60009054906101000a900473ffffffffffffffffffffffffffffffffffffffff1673ffffffffffffffffffffffffffffffffffffffff166370a08231336040518263ffffffff1660e01b8152600401610b489190613754565b60206040518083038186803b158015610b6057600080fd5b505afa158015610b74573d6000803e3d6000fd5b505050506040513d601f19601f82011682018060405250810190610b989190613101565b11610bd8576040517f08c379a0000000000000000000000000000000000000000000000000000000008152600401610bcf906138d9565b60405180910390fd5b67d02ab486cedc0000600d60009054906101000a900473ffffffffffffffffffffffffffffffffffffffff1673ffffffffffffffffffffffffffffffffffffffff1663dd62ed3e33306040518363ffffffff1660e01b8152600401610c3e92919061376f565b60206040518083038186803b158015610c5657600080fd5b505afa158015610c6a573d6000803e3d6000fd5b505050506040513d601f19601f82011682018060405250810190610c8e9190613101565b1015610ccf576040517f08c379a0000000000000000000000000000000000000000000000000000000008152600401610cc690613a79565b60405180910390fd5b6000600e60009054906101000a900473ffffffffffffffffffffffffffffffffffffffff1673ffffffffffffffffffffffffffffffffffffffff166388bcb916336040518263ffffffff1660e01b8152600401610d2c9190613754565b604080518083038186803b158015610d4357600080fd5b505afa158015610d57573d6000803e3d6000fd5b505050506040513d601f19601f82011682018060405250810190610d7b919061300b565b9050600e60009054906101000a900473ffffffffffffffffffffffffffffffffffffffff1673ffffffffffffffffffffffffffffffffffffffff1663ad7425fc336040518263ffffffff1660e01b8152600401610dd89190613754565b600060405180830381600087803b158015610df257600080fd5b505af1158015610e06573d6000803e3d6000fd5b5050505060006001600583600060028110610e4a577f4e487b7100000000000000000000000000000000000000000000000000000000600052603260045260246000fd5b6020020151610e599190613f4d565b610e639190613ccc565b905060006001606484600160028110610ea5577f4e487b7100000000000000000000000000000000000000000000000000000000600052603260045260246000fd5b6020020151610eb49190613f4d565b610ebe9190613ccc565b9050600d60009054906101000a900473ffffffffffffffffffffffffffffffffffffffff1673ffffffffffffffffffffffffffffffffffffffff166323b872dd333067d02ab486cedc00006040518463ffffffff1660e01b8152600401610f2793929190613798565b602060405180830381600087803b158015610f4157600080fd5b505af1158015610f55573d6000803e3d6000fd5b505050506040513d601f19601f82011682018060405250810190610f799190613034565b50610f84600c611c0a565b6000610f90600c611c20565b9050610f9c3382611c2e565b6000610fa784611c4c565b610fb084611c4c565b610fb984611c4c565b610fc287611c4c565b610fcb87611c4c565b604051602001610fdf9594939291906136c7565b6040516020818303038152906040529050610ffa8282611df9565b819550505050505090565b600e60009054906101000a900473ffffffffffffffffffffffffffffffffffffffff1673ffffffffffffffffffffffffffffffffffffffff16638ef54850336040518263ffffffff1660e01b81526004016110609190613754565b602060405180830381600087803b15801561107a57600080fd5b505af115801561108e573d6000803e3d6000fd5b505050506040513d601f19601f820116820180604052508101906110b2919061305d565b50565b6000600b60009054906101000a900473ffffffffffffffffffffffffffffffffffffffff16905090565b6060600180546110ee90613ea1565b80601f016020809104026020016040519081016040528092919081815260200182805461111a90613ea1565b80156111675780601f1061113c57610100808354040283529160200191611167565b820191906000526020600020905b81548152906001019060200180831161114a57829003601f168201915b5050505050905090565b600d60009054906101000a900473ffffffffffffffffffffffffffffffffffffffff1681565b6111a96111a261173e565b8383611e6d565b5050565b67d02ab486cedc0000600d60009054906101000a900473ffffffffffffffffffffffffffffffffffffffff1673ffffffffffffffffffffffffffffffffffffffff166370a08231306040518263ffffffff1660e01b81526004016112119190613754565b60206040518083038186803b15801561122957600080fd5b505afa15801561123d573d6000803e3d6000fd5b505050506040513d601f19601f820116820180604052508101906112619190613101565b10156112a2576040517f08c379a000000000000000000000000000000000000000000000000000000000815260040161129990613b99565b60405180910390fd5b600d60009054906101000a900473ffffffffffffffffffffffffffffffffffffffff1673ffffffffffffffffffffffffffffffffffffffff1663a9059cbb3367d02ab486cedc00006040518363ffffffff1660e01b815260040161130792919061381b565b602060405180830381600087803b15801561132157600080fd5b505af1158015611335573d6000803e3d6000fd5b505050506040513d601f19601f820116820180604052508101906113599190613034565b50565b61136d61136761173e565b836117ff565b6113ac576040517f08c379a00000000000000000000000000000000000000000000000000000000081526004016113a390613b59565b60405180910390fd5b6113b884848484611fda565b50505050565b60606113c982612036565b9050919050565b606060006113dd836109a2565b67ffffffffffffffff81111561141c577f4e487b7100000000000000000000000000000000000000000000000000000000600052604160045260246000fd5b60405190808252806020026020018201604052801561144a5781602001602082028036833780820191505090505b50905060005b611459846109a2565b8110156114c25761146a8482610794565b8282815181106114a3577f4e487b7100000000000000000000000000000000000000000000000000000000600052603260045260246000fd5b60200260200101818152505080806114ba90613f04565b915050611450565b8192505050919050565b6000600560008473ffffffffffffffffffffffffffffffffffffffff1673ffffffffffffffffffffffffffffffffffffffff16815260200190815260200160002060008373ffffffffffffffffffffffffffffffffffffffff1673ffffffffffffffffffffffffffffffffffffffff16815260200190815260200160002060009054906101000a900460ff16905092915050565b61156861173e565b73ffffffffffffffffffffffffffffffffffffffff166115866110b5565b73ffffffffffffffffffffffffffffffffffffffff16146115dc576040517f08c379a00000000000000000000000000000000000000000000000000000000081526004016115d390613af9565b60405180910390fd5b600073ffffffffffffffffffffffffffffffffffffffff168173ffffffffffffffffffffffffffffffffffffffff16141561164c576040517f08c379a000000000000000000000000000000000000000000000000000000000815260040161164390613939565b60405180910390fd5b61165581611b44565b50565b60007f780e9d63000000000000000000000000000000000000000000000000000000007bffffffffffffffffffffffffffffffffffffffffffffffffffffffff1916827bffffffffffffffffffffffffffffffffffffffffffffffffffffffff191614806116cb57506116ca82612188565b5b9050919050565b60008073ffffffffffffffffffffffffffffffffffffffff166002600084815260200190815260200160002060009054906101000a900473ffffffffffffffffffffffffffffffffffffffff1673ffffffffffffffffffffffffffffffffffffffff1614159050919050565b600033905090565b816004600083815260200190815260200160002060006101000a81548173ffffffffffffffffffffffffffffffffffffffff021916908373ffffffffffffffffffffffffffffffffffffffff160217905550808273ffffffffffffffffffffffffffffffffffffffff166117b9836108f0565b73ffffffffffffffffffffffffffffffffffffffff167f8c5be1e5ebec7d5bd14f71427d1e84f3dd0314c0f7b2291e5b200ac8c7c3b92560405160405180910390a45050565b600061180a826116d2565b611849576040517f08c379a0000000000000000000000000000000000000000000000000000000008152600401611840906139d9565b60405180910390fd5b6000611854836108f0565b90508073ffffffffffffffffffffffffffffffffffffffff168473ffffffffffffffffffffffffffffffffffffffff1614806118c357508373ffffffffffffffffffffffffffffffffffffffff166118ab8461058a565b73ffffffffffffffffffffffffffffffffffffffff16145b806118d457506118d381856114cc565b5b91505092915050565b8273ffffffffffffffffffffffffffffffffffffffff166118fd826108f0565b73ffffffffffffffffffffffffffffffffffffffff1614611953576040517f08c379a000000000000000000000000000000000000000000000000000000000815260040161194a90613959565b60405180910390fd5b600073ffffffffffffffffffffffffffffffffffffffff168273ffffffffffffffffffffffffffffffffffffffff1614156119c3576040517f08c379a00000000000000000000000000000000000000000000000000000000081526004016119ba90613999565b60405180910390fd5b6119ce83838361226a565b6119d9600082611746565b6001600360008573ffffffffffffffffffffffffffffffffffffffff1673ffffffffffffffffffffffffffffffffffffffff1681526020019081526020016000206000828254611a299190613d53565b925050819055506001600360008473ffffffffffffffffffffffffffffffffffffffff1673ffffffffffffffffffffffffffffffffffffffff1681526020019081526020016000206000828254611a809190613ccc565b92505081905550816002600083815260200190815260200160002060006101000a81548173ffffffffffffffffffffffffffffffffffffffff021916908373ffffffffffffffffffffffffffffffffffffffff160217905550808273ffffffffffffffffffffffffffffffffffffffff168473ffffffffffffffffffffffffffffffffffffffff167fddf252ad1be2c89b69c2b068fc378daa952ba7f163c4a11628f55a4df523b3ef60405160405180910390a4611b3f83838361227a565b505050565b6000600b60009054906101000a900473ffffffffffffffffffffffffffffffffffffffff16905081600b60006101000a81548173ffffffffffffffffffffffffffffffffffffffff021916908373ffffffffffffffffffffffffffffffffffffffff1602179055508173ffffffffffffffffffffffffffffffffffffffff168173ffffffffffffffffffffffffffffffffffffffff167f8be0079c531659141344cd1fd0a4f28419497f9722a3daafe3b4186f6b6457e060405160405180910390a35050565b6001816000016000828254019250508190555050565b600081600001549050919050565b611c4882826040518060200160405280600081525061227f565b5050565b60606000821415611c94576040518060400160405280600181526020017f30000000000000000000000000000000000000000000000000000000000000008152509050611df4565b600082905060005b60008214611cc6578080611caf90613f04565b915050600a82611cbf9190613d22565b9150611c9c565b60008167ffffffffffffffff811115611d08577f4e487b7100000000000000000000000000000000000000000000000000000000600052604160045260246000fd5b6040519080825280601f01601f191660200182016040528015611d3a5781602001600182028036833780820191505090505b5090505b60008514611ded57600182611d539190613d53565b9150600a85611d629190613f4d565b6030611d6e9190613ccc565b60f81b818381518110611daa577f4e487b7100000000000000000000000000000000000000000000000000000000600052603260045260246000fd5b60200101907effffffffffffffffffffffffffffffffffffffffffffffffffffffffffffff1916908160001a905350600a85611de69190613d22565b9450611d3e565b8093505050505b919050565b611e02826116d2565b611e41576040517f08c379a0000000000000000000000000000000000000000000000000000000008152600401611e3890613a59565b60405180910390fd5b80600a60008481526020019081526020016000209080519060200190611e68929190612c27565b505050565b8173ffffffffffffffffffffffffffffffffffffffff168373ffffffffffffffffffffffffffffffffffffffff161415611edc576040517f08c379a0000000000000000000000000000000000000000000000000000000008152600401611ed3906139b9565b60405180910390fd5b80600560008573ffffffffffffffffffffffffffffffffffffffff1673ffffffffffffffffffffffffffffffffffffffff16815260200190815260200160002060008473ffffffffffffffffffffffffffffffffffffffff1673ffffffffffffffffffffffffffffffffffffffff16815260200190815260200160002060006101000a81548160ff0219169083151502179055508173ffffffffffffffffffffffffffffffffffffffff168373ffffffffffffffffffffffffffffffffffffffff167f17307eab39ab6107e8899845ad3d59bd9653f200f220920489ca2b5937696c3183604051611fcd9190613866565b60405180910390a3505050565b611fe58484846118dd565b611ff1848484846122da565b612030576040517f08c379a000000000000000000000000000000000000000000000000000000000815260040161202790613919565b60405180910390fd5b50505050565b6060612041826116d2565b612080576040517f08c379a000000000000000000000000000000000000000000000000000000000815260040161207790613ab9565b60405180910390fd5b6000600a600084815260200190815260200160002080546120a090613ea1565b80601f01602080910402602001604051908101604052809291908181526020018280546120cc90613ea1565b80156121195780601f106120ee57610100808354040283529160200191612119565b820191906000526020600020905b8154815290600101906020018083116120fc57829003601f168201915b50505050509050600061212a612471565b9050600081511415612140578192505050612183565b60008251111561217557808260405160200161215d9291906136a3565b60405160208183030381529060405292505050612183565b61217e84612488565b925050505b919050565b60007f80ac58cd000000000000000000000000000000000000000000000000000000007bffffffffffffffffffffffffffffffffffffffffffffffffffffffff1916827bffffffffffffffffffffffffffffffffffffffffffffffffffffffff1916148061225357507f5b5e139f000000000000000000000000000000000000000000000000000000007bffffffffffffffffffffffffffffffffffffffffffffffffffffffff1916827bffffffffffffffffffffffffffffffffffffffffffffffffffffffff1916145b8061226357506122628261252f565b5b9050919050565b612275838383612599565b505050565b505050565b61228983836126ad565b61229660008484846122da565b6122d5576040517f08c379a00000000000000000000000000000000000000000000000000000000081526004016122cc90613919565b60405180910390fd5b505050565b60006122fb8473ffffffffffffffffffffffffffffffffffffffff16612887565b15612464578373ffffffffffffffffffffffffffffffffffffffff1663150b7a0261232461173e565b8786866040518563ffffffff1660e01b815260040161234694939291906137cf565b602060405180830381600087803b15801561236057600080fd5b505af192505050801561239157506040513d601f19601f8201168201806040525081019061238e91906130af565b60015b612414573d80600081146123c1576040519150601f19603f3d011682016040523d82523d6000602084013e6123c6565b606091505b5060008151141561240c576040517f08c379a000000000000000000000000000000000000000000000000000000000815260040161240390613919565b60405180910390fd5b805181602001fd5b63150b7a0260e01b7bffffffffffffffffffffffffffffffffffffffffffffffffffffffff1916817bffffffffffffffffffffffffffffffffffffffffffffffffffffffff191614915050612469565b600190505b949350505050565b606060405180602001604052806000815250905090565b6060612493826116d2565b6124d2576040517f08c379a00000000000000000000000000000000000000000000000000000000081526004016124c990613b19565b60405180910390fd5b60006124dc612471565b905060008151116124fc5760405180602001604052806000815250612527565b8061250684611c4c565b6040516020016125179291906136a3565b6040516020818303038152906040525b915050919050565b60007f01ffc9a7000000000000000000000000000000000000000000000000000000007bffffffffffffffffffffffffffffffffffffffffffffffffffffffff1916827bffffffffffffffffffffffffffffffffffffffffffffffffffffffff1916149050919050565b6125a48383836128aa565b600073ffffffffffffffffffffffffffffffffffffffff168373ffffffffffffffffffffffffffffffffffffffff1614156125e7576125e2816128af565b612626565b8173ffffffffffffffffffffffffffffffffffffffff168373ffffffffffffffffffffffffffffffffffffffff16146126255761262483826128f8565b5b5b600073ffffffffffffffffffffffffffffffffffffffff168273ffffffffffffffffffffffffffffffffffffffff1614156126695761266481612a65565b6126a8565b8273ffffffffffffffffffffffffffffffffffffffff168273ffffffffffffffffffffffffffffffffffffffff16146126a7576126a68282612ba8565b5b5b505050565b600073ffffffffffffffffffffffffffffffffffffffff168273ffffffffffffffffffffffffffffffffffffffff16141561271d576040517f08c379a000000000000000000000000000000000000000000000000000000000815260040161271490613a99565b60405180910390fd5b612726816116d2565b15612766576040517f08c379a000000000000000000000000000000000000000000000000000000000815260040161275d90613979565b60405180910390fd5b6127726000838361226a565b6001600360008473ffffffffffffffffffffffffffffffffffffffff1673ffffffffffffffffffffffffffffffffffffffff16815260200190815260200160002060008282546127c29190613ccc565b92505081905550816002600083815260200190815260200160002060006101000a81548173ffffffffffffffffffffffffffffffffffffffff021916908373ffffffffffffffffffffffffffffffffffffffff160217905550808273ffffffffffffffffffffffffffffffffffffffff16600073ffffffffffffffffffffffffffffffffffffffff167fddf252ad1be2c89b69c2b068fc378daa952ba7f163c4a11628f55a4df523b3ef60405160405180910390a46128836000838361227a565b5050565b6000808273ffffffffffffffffffffffffffffffffffffffff163b119050919050565b505050565b6008805490506009600083815260200190815260200160002081905550600881908060018154018082558091505060019003906000526020600020016000909190919091505550565b60006001612905846109a2565b61290f9190613d53565b90506000600760008481526020019081526020016000205490508181146129f4576000600660008673ffffffffffffffffffffffffffffffffffffffff1673ffffffffffffffffffffffffffffffffffffffff168152602001908152602001600020600084815260200190815260200160002054905080600660008773ffffffffffffffffffffffffffffffffffffffff1673ffffffffffffffffffffffffffffffffffffffff168152602001908152602001600020600084815260200190815260200160002081905550816007600083815260200190815260200160002081905550505b6007600084815260200190815260200160002060009055600660008573ffffffffffffffffffffffffffffffffffffffff1673ffffffffffffffffffffffffffffffffffffffff16815260200190815260200160002060008381526020019081526020016000206000905550505050565b60006001600880549050612a799190613d53565b9050600060096000848152602001908152602001600020549050600060088381548110612acf577f4e487b7100000000000000000000000000000000000000000000000000000000600052603260045260246000fd5b906000526020600020015490508060088381548110612b17577f4e487b7100000000000000000000000000000000000000000000000000000000600052603260045260246000fd5b906000526020600020018190555081600960008381526020019081526020016000208190555060096000858152602001908152602001600020600090556008805480612b8c577f4e487b7100000000000000000000000000000000000000000000000000000000600052603160045260246000fd5b6001900381819060005260206000200160009055905550505050565b6000612bb3836109a2565b905081600660008573ffffffffffffffffffffffffffffffffffffffff1673ffffffffffffffffffffffffffffffffffffffff168152602001908152602001600020600083815260200190815260200160002081905550806007600084815260200190815260200160002081905550505050565b828054612c3390613ea1565b90600052602060002090601f016020900481019282612c555760008555612c9c565b82601f10612c6e57805160ff1916838001178555612c9c565b82800160010185558215612c9c579182015b82811115612c9b578251825591602001919060010190612c80565b5b509050612ca99190612cad565b5090565b5b80821115612cc6576000816000905550600101612cae565b5090565b6000612cdd612cd884613bf9565b613bd4565b90508082856020860282011115612cf357600080fd5b60005b85811015612d235781612d098882612e4f565b845260208401935060208301925050600181019050612cf6565b5050509392505050565b6000612d40612d3b84613c1f565b613bd4565b905082815260208101848484011115612d5857600080fd5b612d63848285613e5f565b509392505050565b600081359050612d7a816147e8565b92915050565b600082601f830112612d9157600080fd5b6002612d9e848285612cca565b91505092915050565b600081359050612db6816147ff565b92915050565b600081519050612dcb816147ff565b92915050565b600081519050612de081614816565b92915050565b600081359050612df58161482d565b92915050565b600081519050612e0a8161482d565b92915050565b600082601f830112612e2157600080fd5b8135612e31848260208601612d2d565b91505092915050565b600081359050612e4981614844565b92915050565b600081519050612e5e81614844565b92915050565b600060208284031215612e7657600080fd5b6000612e8484828501612d6b565b91505092915050565b60008060408385031215612ea057600080fd5b6000612eae85828601612d6b565b9250506020612ebf85828601612d6b565b9150509250929050565b600080600060608486031215612ede57600080fd5b6000612eec86828701612d6b565b9350506020612efd86828701612d6b565b9250506040612f0e86828701612e3a565b9150509250925092565b60008060008060808587031215612f2e57600080fd5b6000612f3c87828801612d6b565b9450506020612f4d87828801612d6b565b9350506040612f5e87828801612e3a565b925050606085013567ffffffffffffffff811115612f7b57600080fd5b612f8787828801612e10565b91505092959194509250565b60008060408385031215612fa657600080fd5b6000612fb485828601612d6b565b9250506020612fc585828601612da7565b9150509250929050565b60008060408385031215612fe257600080fd5b6000612ff085828601612d6b565b925050602061300185828601612e3a565b9150509250929050565b60006040828403121561301d57600080fd5b600061302b84828501612d80565b91505092915050565b60006020828403121561304657600080fd5b600061305484828501612dbc565b91505092915050565b60006020828403121561306f57600080fd5b600061307d84828501612dd1565b91505092915050565b60006020828403121561309857600080fd5b60006130a684828501612de6565b91505092915050565b6000602082840312156130c157600080fd5b60006130cf84828501612dfb565b91505092915050565b6000602082840312156130ea57600080fd5b60006130f884828501612e3a565b91505092915050565b60006020828403121561311357600080fd5b600061312184828501612e4f565b91505092915050565b60006131368383613685565b60208301905092915050565b61314b81613d87565b82525050565b600061315c82613c60565b6131668185613c8e565b935061317183613c50565b8060005b838110156131a2578151613189888261312a565b975061319483613c81565b925050600181019050613175565b5085935050505092915050565b6131b881613d99565b82525050565b60006131c982613c6b565b6131d38185613c9f565b93506131e3818560208601613e6e565b6131ec8161403a565b840191505092915050565b61320081613e05565b82525050565b61320f81613e29565b82525050565b61321e81613e4d565b82525050565b600061322f82613c76565b6132398185613cb0565b9350613249818560208601613e6e565b6132528161403a565b840191505092915050565b600061326882613c76565b6132728185613cc1565b9350613282818560208601613e6e565b80840191505092915050565b600061329b601183613cc1565b91506132a68261404b565b601182019050919050565b60006132be601783613cb0565b91506132c982614074565b602082019050919050565b60006132e1602b83613cb0565b91506132ec8261409d565b604082019050919050565b6000613304603283613cb0565b915061330f826140ec565b604082019050919050565b6000613327602683613cb0565b91506133328261413b565b604082019050919050565b600061334a602583613cb0565b91506133558261418a565b604082019050919050565b600061336d601c83613cb0565b9150613378826141d9565b602082019050919050565b6000613390602483613cb0565b915061339b82614202565b604082019050919050565b60006133b3601983613cb0565b91506133be82614251565b602082019050919050565b60006133d6601383613cc1565b91506133e18261427a565b601382019050919050565b60006133f9602c83613cb0565b9150613404826142a3565b604082019050919050565b600061341c606783613cc1565b9150613427826142f2565b606782019050919050565b600061343f603883613cc1565b915061344a8261438d565b603882019050919050565b6000613462603883613cb0565b915061346d826143dc565b604082019050919050565b6000613485602a83613cb0565b91506134908261442b565b604082019050919050565b60006134a8602983613cb0565b91506134b38261447a565b604082019050919050565b60006134cb602e83613cb0565b91506134d6826144c9565b604082019050919050565b60006134ee601983613cb0565b91506134f982614518565b602082019050919050565b6000613511602083613cb0565b915061351c82614541565b602082019050919050565b6000613534603183613cb0565b915061353f8261456a565b604082019050919050565b6000613557602c83613cb0565b9150613562826145b9565b604082019050919050565b600061357a602083613cb0565b915061358582614608565b602082019050919050565b600061359d602f83613cb0565b91506135a882614631565b604082019050919050565b60006135c0602183613cb0565b91506135cb82614680565b604082019050919050565b60006135e3603183613cb0565b91506135ee826146cf565b604082019050919050565b6000613606602c83613cb0565b91506136118261471e565b604082019050919050565b6000613629600183613cc1565b91506136348261476d565b600182019050919050565b600061364c600e83613cb0565b915061365782614796565b602082019050919050565b600061366f600483613cc1565b915061367a826147bf565b600482019050919050565b61368e81613dfb565b82525050565b61369d81613dfb565b82525050565b60006136af828561325d565b91506136bb828461325d565b91508190509392505050565b60006136d28261328e565b91506136de828861325d565b91506136e98261361c565b91506136f5828761325d565b9150613700826133c9565b915061370c828661325d565b91506137178261340f565b9150613723828561325d565b915061372e82613432565b915061373a828461325d565b915061374582613662565b91508190509695505050505050565b60006020820190506137696000830184613142565b92915050565b60006040820190506137846000830185613142565b6137916020830184613142565b9392505050565b60006060820190506137ad6000830186613142565b6137ba6020830185613142565b6137c76040830184613694565b949350505050565b60006080820190506137e46000830187613142565b6137f16020830186613142565b6137fe6040830185613694565b818103606083015261381081846131be565b905095945050505050565b60006040820190506138306000830185613142565b61383d6020830184613215565b9392505050565b6000602082019050818103600083015261385e8184613151565b905092915050565b600060208201905061387b60008301846131af565b92915050565b600060208201905061389660008301846131f7565b92915050565b60006020820190506138b16000830184613206565b92915050565b600060208201905081810360008301526138d18184613224565b905092915050565b600060208201905081810360008301526138f2816132b1565b9050919050565b60006020820190508181036000830152613912816132d4565b9050919050565b60006020820190508181036000830152613932816132f7565b9050919050565b600060208201905081810360008301526139528161331a565b9050919050565b600060208201905081810360008301526139728161333d565b9050919050565b6000602082019050818103600083015261399281613360565b9050919050565b600060208201905081810360008301526139b281613383565b9050919050565b600060208201905081810360008301526139d2816133a6565b9050919050565b600060208201905081810360008301526139f2816133ec565b9050919050565b60006020820190508181036000830152613a1281613455565b9050919050565b60006020820190508181036000830152613a3281613478565b9050919050565b60006020820190508181036000830152613a528161349b565b9050919050565b60006020820190508181036000830152613a72816134be565b9050919050565b60006020820190508181036000830152613a92816134e1565b9050919050565b60006020820190508181036000830152613ab281613504565b9050919050565b60006020820190508181036000830152613ad281613527565b9050919050565b60006020820190508181036000830152613af28161354a565b9050919050565b60006020820190508181036000830152613b128161356d565b9050919050565b60006020820190508181036000830152613b3281613590565b9050919050565b60006020820190508181036000830152613b52816135b3565b9050919050565b60006020820190508181036000830152613b72816135d6565b9050919050565b60006020820190508181036000830152613b92816135f9565b9050919050565b60006020820190508181036000830152613bb28161363f565b9050919050565b6000602082019050613bce6000830184613694565b92915050565b6000613bde613bef565b9050613bea8282613ed3565b919050565b6000604051905090565b600067ffffffffffffffff821115613c1457613c1361400b565b5b602082029050919050565b600067ffffffffffffffff821115613c3a57613c3961400b565b5b613c438261403a565b9050602081019050919050565b6000819050602082019050919050565b600081519050919050565b600081519050919050565b600081519050919050565b6000602082019050919050565b600082825260208201905092915050565b600082825260208201905092915050565b600082825260208201905092915050565b600081905092915050565b6000613cd782613dfb565b9150613ce283613dfb565b9250827fffffffffffffffffffffffffffffffffffffffffffffffffffffffffffffffff03821115613d1757613d16613f7e565b5b828201905092915050565b6000613d2d82613dfb565b9150613d3883613dfb565b925082613d4857613d47613fad565b5b828204905092915050565b6000613d5e82613dfb565b9150613d6983613dfb565b925082821015613d7c57613d7b613f7e565b5b828203905092915050565b6000613d9282613ddb565b9050919050565b60008115159050919050565b6000819050919050565b60007fffffffff0000000000000000000000000000000000000000000000000000000082169050919050565b600073ffffffffffffffffffffffffffffffffffffffff82169050919050565b6000819050919050565b6000613e1082613e17565b9050919050565b6000613e2282613ddb565b9050919050565b6000613e3482613e3b565b9050919050565b6000613e4682613ddb565b9050919050565b6000613e5882613dfb565b9050919050565b82818337600083830152505050565b60005b83811015613e8c578082015181840152602081019050613e71565b83811115613e9b576000848401525b50505050565b60006002820490506001821680613eb957607f821691505b60208210811415613ecd57613ecc613fdc565b5b50919050565b613edc8261403a565b810181811067ffffffffffffffff82111715613efb57613efa61400b565b5b80604052505050565b6000613f0f82613dfb565b91507fffffffffffffffffffffffffffffffffffffffffffffffffffffffffffffffff821415613f4257613f41613f7e565b5b600182019050919050565b6000613f5882613dfb565b9150613f6383613dfb565b925082613f7357613f72613fad565b5b828206905092915050565b7f4e487b7100000000000000000000000000000000000000000000000000000000600052601160045260246000fd5b7f4e487b7100000000000000000000000000000000000000000000000000000000600052601260045260246000fd5b7f4e487b7100000000000000000000000000000000000000000000000000000000600052602260045260246000fd5b7f4e487b7100000000000000000000000000000000000000000000000000000000600052604160045260246000fd5b6000601f19601f8301169050919050565b7f7b226e616d65223a224d6f6e7374657220000000000000000000000000000000600082015250565b7f4e6f7420656e6f75676820534c41425320746f6b656e73000000000000000000600082015250565b7f455243373231456e756d657261626c653a206f776e657220696e646578206f7560008201527f74206f6620626f756e6473000000000000000000000000000000000000000000602082015250565b7f4552433732313a207472616e7366657220746f206e6f6e20455243373231526560008201527f63656976657220696d706c656d656e7465720000000000000000000000000000602082015250565b7f4f776e61626c653a206e6577206f776e657220697320746865207a65726f206160008201527f6464726573730000000000000000000000000000000000000000000000000000602082015250565b7f4552433732313a207472616e736665722066726f6d20696e636f72726563742060008201527f6f776e6572000000000000000000000000000000000000000000000000000000602082015250565b7f4552433732313a20746f6b656e20616c7265616479206d696e74656400000000600082015250565b7f4552433732313a207472616e7366657220746f20746865207a65726f2061646460008201527f7265737300000000000000000000000000000000000000000000000000000000602082015250565b7f4552433732313a20617070726f766520746f2063616c6c657200000000000000600082015250565b7f222c226465736372697074696f6e223a20222300000000000000000000000000600082015250565b7f4552433732313a206f70657261746f7220717565727920666f72206e6f6e657860008201527f697374656e7420746f6b656e0000000000000000000000000000000000000000602082015250565b7f204c6162204d6f6e73746572204e4654222c22696d616765223a22687474707360008201527f3a2f2f697066732e696f2f697066732f516d5a577a41554d733847374270396160208201527f3177384b617775385552373164356d69706b794439663439687367486d332f6d60408201527f6f6e737465722d00000000000000000000000000000000000000000000000000606082015250565b7f2e706e67222c2261747472696275746573223a5b7b2274726169745f7479706560008201527f223a2022537472656e677468222c202276616c7565223a220000000000000000602082015250565b7f4552433732313a20617070726f76652063616c6c6572206973206e6f74206f7760008201527f6e6572206e6f7220617070726f76656420666f7220616c6c0000000000000000602082015250565b7f4552433732313a2062616c616e636520717565727920666f7220746865207a6560008201527f726f206164647265737300000000000000000000000000000000000000000000602082015250565b7f4552433732313a206f776e657220717565727920666f72206e6f6e657869737460008201527f656e7420746f6b656e0000000000000000000000000000000000000000000000602082015250565b7f45524337323155524953746f726167653a2055524920736574206f66206e6f6e60008201527f6578697374656e7420746f6b656e000000000000000000000000000000000000602082015250565b7f4e65656420746f6b656e20617070726f76616c20666972737400000000000000600082015250565b7f4552433732313a206d696e7420746f20746865207a65726f2061646472657373600082015250565b7f45524337323155524953746f726167653a2055524920717565727920666f722060008201527f6e6f6e6578697374656e7420746f6b656e000000000000000000000000000000602082015250565b7f4552433732313a20617070726f76656420717565727920666f72206e6f6e657860008201527f697374656e7420746f6b656e0000000000000000000000000000000000000000602082015250565b7f4f776e61626c653a2063616c6c6572206973206e6f7420746865206f776e6572600082015250565b7f4552433732314d657461646174613a2055524920717565727920666f72206e6f60008201527f6e6578697374656e7420746f6b656e0000000000000000000000000000000000602082015250565b7f4552433732313a20617070726f76616c20746f2063757272656e74206f776e6560008201527f7200000000000000000000000000000000000000000000000000000000000000602082015250565b7f4552433732313a207472616e736665722063616c6c6572206973206e6f74206f60008201527f776e6572206e6f7220617070726f766564000000000000000000000000000000602082015250565b7f455243373231456e756d657261626c653a20676c6f62616c20696e646578206f60008201527f7574206f6620626f756e64730000000000000000000000000000000000000000602082015250565b7f2d00000000000000000000000000000000000000000000000000000000000000600082015250565b7f576974686f757420746f6b656e73000000000000000000000000000000000000600082015250565b7f227d5d7d00000000000000000000000000000000000000000000000000000000600082015250565b6147f181613d87565b81146147fc57600080fd5b50565b61480881613d99565b811461481357600080fd5b50565b61481f81613da5565b811461482a57600080fd5b50565b61483681613daf565b811461484157600080fd5b50565b61484d81613dfb565b811461485857600080fd5b5056fea264697066735822122066b93de0371939f3d64682875e2d14441d285bafb093eb73bc8a5df49f5630b064736f6c63430008040033",
  "linkReferences": {},
  "deployedLinkReferences": {}
}